{
  "_format": "hh-sol-artifact-1",
  "contractName": "CrowdFunding",
  "sourceName": "contracts/CrowdFunding.sol",
  "abi": [
    {
      "inputs": [
        {
          "internalType": "uint256",
          "name": "",
          "type": "uint256"
        }
      ],
      "name": "campaigns",
      "outputs": [
        {
          "internalType": "address",
          "name": "owner",
          "type": "address"
        },
        {
          "internalType": "string",
          "name": "name",
          "type": "string"
        },
        {
          "internalType": "string",
          "name": "title",
          "type": "string"
        },
        {
          "internalType": "string",
          "name": "description",
          "type": "string"
        },
        {
          "internalType": "uint256",
          "name": "target",
          "type": "uint256"
        },
        {
          "internalType": "uint256",
          "name": "deadline",
          "type": "uint256"
        },
        {
          "internalType": "uint256",
          "name": "amountCollected",
          "type": "uint256"
        },
        {
          "internalType": "string",
          "name": "image",
          "type": "string"
        },
        {
          "internalType": "uint256",
          "name": "id",
          "type": "uint256"
        }
      ],
      "stateMutability": "view",
      "type": "function"
    },
    {
      "inputs": [
        {
          "internalType": "uint256",
          "name": "_id",
          "type": "uint256"
        }
      ],
      "name": "closeCampaign",
      "outputs": [],
      "stateMutability": "nonpayable",
      "type": "function"
    },
    {
      "inputs": [
        {
          "internalType": "uint256",
          "name": "",
          "type": "uint256"
        }
      ],
      "name": "closedCampaigns",
      "outputs": [
        {
          "internalType": "address",
          "name": "owner",
          "type": "address"
        },
        {
          "internalType": "string",
          "name": "name",
          "type": "string"
        },
        {
          "internalType": "string",
          "name": "title",
          "type": "string"
        },
        {
          "internalType": "string",
          "name": "description",
          "type": "string"
        },
        {
          "internalType": "uint256",
          "name": "target",
          "type": "uint256"
        },
        {
          "internalType": "uint256",
          "name": "deadline",
          "type": "uint256"
        },
        {
          "internalType": "uint256",
          "name": "amountCollected",
          "type": "uint256"
        },
        {
          "internalType": "string",
          "name": "image",
          "type": "string"
        },
        {
          "internalType": "uint256",
          "name": "id",
          "type": "uint256"
        }
      ],
      "stateMutability": "view",
      "type": "function"
    },
    {
      "inputs": [
        {
          "internalType": "address",
          "name": "_owner",
          "type": "address"
        },
        {
          "internalType": "string",
          "name": "_title",
          "type": "string"
        },
        {
          "internalType": "string",
          "name": "_name",
          "type": "string"
        },
        {
          "internalType": "string",
          "name": "_description",
          "type": "string"
        },
        {
          "internalType": "uint256",
          "name": "_target",
          "type": "uint256"
        },
        {
          "internalType": "uint256",
          "name": "_deadline",
          "type": "uint256"
        },
        {
          "internalType": "string",
          "name": "_image",
          "type": "string"
        }
      ],
      "name": "createCampaign",
      "outputs": [
        {
          "internalType": "uint256",
          "name": "",
          "type": "uint256"
        }
      ],
      "stateMutability": "nonpayable",
      "type": "function"
    },
    {
      "inputs": [
        {
          "internalType": "uint256",
          "name": "_id",
          "type": "uint256"
        }
      ],
      "name": "donate",
      "outputs": [],
      "stateMutability": "payable",
      "type": "function"
    },
    {
      "inputs": [
        {
          "internalType": "uint256",
          "name": "_id",
          "type": "uint256"
        }
      ],
      "name": "donateToCampaign",
      "outputs": [],
      "stateMutability": "payable",
      "type": "function"
    },
    {
      "inputs": [],
      "name": "getBalance",
      "outputs": [
        {
          "internalType": "uint256",
          "name": "",
          "type": "uint256"
        }
      ],
      "stateMutability": "view",
      "type": "function"
    },
    {
      "inputs": [],
      "name": "getCampaigns",
      "outputs": [
        {
          "components": [
            {
              "internalType": "address",
              "name": "owner",
              "type": "address"
            },
            {
              "internalType": "string",
              "name": "name",
              "type": "string"
            },
            {
              "internalType": "string",
              "name": "title",
              "type": "string"
            },
            {
              "internalType": "string",
              "name": "description",
              "type": "string"
            },
            {
              "internalType": "uint256",
              "name": "target",
              "type": "uint256"
            },
            {
              "internalType": "uint256",
              "name": "deadline",
              "type": "uint256"
            },
            {
              "internalType": "uint256",
              "name": "amountCollected",
              "type": "uint256"
            },
            {
              "internalType": "string",
              "name": "image",
              "type": "string"
            },
            {
              "internalType": "address[]",
              "name": "donators",
              "type": "address[]"
            },
            {
              "internalType": "uint256[]",
              "name": "donations",
              "type": "uint256[]"
            },
            {
              "internalType": "uint256",
              "name": "id",
              "type": "uint256"
            }
          ],
          "internalType": "struct CrowdFunding.Campaign[]",
          "name": "",
          "type": "tuple[]"
        }
      ],
      "stateMutability": "view",
      "type": "function"
    },
    {
      "inputs": [
        {
          "internalType": "uint256",
          "name": "_id",
          "type": "uint256"
        }
      ],
      "name": "getDonators",
      "outputs": [
        {
          "internalType": "address[]",
          "name": "",
          "type": "address[]"
        },
        {
          "internalType": "uint256[]",
          "name": "",
          "type": "uint256[]"
        }
      ],
      "stateMutability": "view",
      "type": "function"
    },
    {
      "inputs": [],
      "name": "numberOfCampaigns",
      "outputs": [
        {
          "internalType": "uint256",
          "name": "",
          "type": "uint256"
        }
      ],
      "stateMutability": "view",
      "type": "function"
    },
    {
      "inputs": [],
      "name": "numberOfClosedCampaigns",
      "outputs": [
        {
          "internalType": "uint256",
          "name": "",
          "type": "uint256"
        }
      ],
      "stateMutability": "view",
      "type": "function"
    },
    {
      "inputs": [
        {
          "internalType": "uint256",
          "name": "_id",
          "type": "uint256"
        },
        {
          "internalType": "address",
          "name": "_donator",
          "type": "address"
        },
        {
          "internalType": "uint256",
          "name": "_donationAmount",
          "type": "uint256"
        }
      ],
      "name": "refundDonation",
      "outputs": [
        {
          "components": [
            {
              "internalType": "address",
              "name": "refundAddr",
              "type": "address"
            },
            {
              "internalType": "uint256",
              "name": "refundAmount",
              "type": "uint256"
            }
          ],
          "internalType": "struct CrowdFunding.RefundMessage",
          "name": "message",
          "type": "tuple"
        }
      ],
      "stateMutability": "payable",
      "type": "function"
    },
    {
      "inputs": [
        {
          "internalType": "address",
          "name": "_owner",
          "type": "address"
        },
        {
          "internalType": "uint256",
          "name": "_id",
          "type": "uint256"
        }
      ],
      "name": "withdraw",
      "outputs": [],
      "stateMutability": "payable",
      "type": "function"
    }
  ],
  "bytecode": "0x60806040526000600255600060035534801561001a57600080fd5b50611d058061002a6000396000f3fe6080604052600436106100c25760003560e01c806342a4fda81161007f578063a6b0363311610059578063a6b0363314610208578063b0e1c1e11461022a578063f14faf6f1461024a578063f3fef3a31461025d57600080fd5b806342a4fda8146101b35780637660be5d146101c85780638c661e1d146101e857600080fd5b806307ca140d146100c75780630fa91fa9146100f057806312065fe01461011e578063141961bc146101315780631b5d870414610166578063284325ab1461019d575b600080fd5b3480156100d357600080fd5b506100dd60025481565b6040519081526020015b60405180910390f35b3480156100fc57600080fd5b5061011061010b3660046116ff565b610270565b6040516100e7929190611718565b34801561012a57600080fd5b50476100dd565b34801561013d57600080fd5b5061015161014c3660046116ff565b61033f565b6040516100e7999897969594939291906117e9565b610179610174366004611890565b6105b0565b6040805182516001600160a01b0316815260209283015192810192909252016100e7565b3480156101a957600080fd5b506100dd60035481565b6101c66101c13660046116ff565b610944565b005b3480156101d457600080fd5b506100dd6101e3366004611968565b610a06565b3480156101f457600080fd5b506101516102033660046116ff565b610b35565b34801561021457600080fd5b5061021d610b62565b6040516100e79190611aad565b34801561023657600080fd5b506101c66102453660046116ff565b610fb9565b6101c66102583660046116ff565b61142f565b6101c661026b366004611be3565b611495565b600081815260208181526040918290206008810180548451818502810185019095528085526060948594929360090192909184918301828280156102dd57602002820191906000526020600020905b81546001600160a01b031681526001909101906020018083116102bf575b505050505091508080548060200260200160405190810160405280929190818152602001828054801561032f57602002820191906000526020600020905b81548152602001906001019080831161031b575b5050505050905091509150915091565b600060208190529081526040902080546001820180546001600160a01b03909216929161036b90611c0d565b80601f016020809104026020016040519081016040528092919081815260200182805461039790611c0d565b80156103e45780601f106103b9576101008083540402835291602001916103e4565b820191906000526020600020905b8154815290600101906020018083116103c757829003601f168201915b5050505050908060020180546103f990611c0d565b80601f016020809104026020016040519081016040528092919081815260200182805461042590611c0d565b80156104725780601f1061044757610100808354040283529160200191610472565b820191906000526020600020905b81548152906001019060200180831161045557829003601f168201915b50505050509080600301805461048790611c0d565b80601f01602080910402602001604051908101604052809291908181526020018280546104b390611c0d565b80156105005780601f106104d557610100808354040283529160200191610500565b820191906000526020600020905b8154815290600101906020018083116104e357829003601f168201915b50505050509080600401549080600501549080600601549080600701805461052790611c0d565b80601f016020809104026020016040519081016040528092919081815260200182805461055390611c0d565b80156105a05780601f10610575576101008083540402835291602001916105a0565b820191906000526020600020905b81548152906001019060200180831161058357829003601f168201915b50505050509080600a0154905089565b6040805180820190915260008082526020820152600254841061061a5760405162461bcd60e51b815260206004820152601a60248201527f43616d706169676e20494420646f6573206e6f7420657869737400000000000060448201526064015b60405180910390fd5b6000848152602081905260408120908080805b60088501548110156106be57876001600160a01b031685600801828154811061065857610658611c42565b6000918252602090912001546001600160a01b031614801561069857508685600901828154811061068b5761068b611c42565b9060005260206000200154145b156106ac57809350869250600191506106be565b806106b681611c6e565b91505061062d565b50806107325760405162461bcd60e51b815260206004820152603d60248201527f446f6e6f7220616e6420646f6e6174696f6e20616d6f756e7420646f206e6f7460448201527f206d6174636820616e79207265636f7264656420646f6e6174696f6e730000006064820152608401610611565b6040516001600160a01b0388169083156108fc029084906000818181858888f19350505050158015610768573d6000803e3d6000fd5b508184600601600082825461077d9190611c89565b92505081905550600084600901848154811061079b5761079b611c42565b600091825260209091200155825b60088501546107ba90600190611c89565b81101561089457600885016107d0826001611ca0565b815481106107e0576107e0611c42565b6000918252602090912001546008860180546001600160a01b03909216918390811061080e5761080e611c42565b600091825260209091200180546001600160a01b0319166001600160a01b039290921691909117905560098501610846826001611ca0565b8154811061085657610856611c42565b906000526020600020015485600901828154811061087657610876611c42565b6000918252602090912001558061088c81611c6e565b9150506107a9565b506008840180546108a790600190611c89565b815481106108b7576108b7611c42565b600091825260209091200180546001600160a01b03191690556009840180546108e290600190611c89565b815481106108f2576108f2611c42565b9060005260206000200160009055610926604051806040016040528060006001600160a01b03168152602001600081525090565b6001600160a01b039790971687525060208601525092949350505050565b600081815260208181526040808320600881018054600180820183559186528486200180546001600160a01b0319163317905560098201805491820181558552928420349301839055805491519293909290916001600160a01b03169084908381818185875af1925050503d80600081146109db576040519150601f19603f3d011682016040523d82523d6000602084013e6109e0565b606091505b505090508015610a00578282600601546109fa9190611ca0565b60068301555b50505050565b600254600090815260208190526040812060058101544211610a765760405162461bcd60e51b815260206004820152602360248201527f446561646c696e652073686f756c642062652061206461746520696e2066757460448201526275726560e81b6064820152608401610611565b600254600a82015580546001600160a01b0319166001600160a01b038a161781558651610aac90600183019060208a0190611555565b508751610ac290600283019060208b0190611555565b508551610ad89060038301906020890190611555565b506004810185905560058101849055600060068201558251610b039060078301906020860190611555565b5060028054906000610b1483611c6e565b91905055506001600254610b289190611c89565b9998505050505050505050565b6001602081905260009182526040909120805491810180546001600160a01b039093169261036b90611c0d565b6060600060025467ffffffffffffffff811115610b8157610b816118c5565b604051908082528060200260200182016040528015610c1857816020015b610c0560405180610160016040528060006001600160a01b03168152602001606081526020016060815260200160608152602001600081526020016000815260200160008152602001606081526020016060815260200160608152602001600081525090565b815260200190600190039081610b9f5790505b50905060005b600254811015610fb357600081815260208181526040918290208251610160810190935280546001600160a01b0316835260018101805491939284929084019190610c6890611c0d565b80601f0160208091040260200160405190810160405280929190818152602001828054610c9490611c0d565b8015610ce15780601f10610cb657610100808354040283529160200191610ce1565b820191906000526020600020905b815481529060010190602001808311610cc457829003601f168201915b50505050508152602001600282018054610cfa90611c0d565b80601f0160208091040260200160405190810160405280929190818152602001828054610d2690611c0d565b8015610d735780601f10610d4857610100808354040283529160200191610d73565b820191906000526020600020905b815481529060010190602001808311610d5657829003601f168201915b50505050508152602001600382018054610d8c90611c0d565b80601f0160208091040260200160405190810160405280929190818152602001828054610db890611c0d565b8015610e055780601f10610dda57610100808354040283529160200191610e05565b820191906000526020600020905b815481529060010190602001808311610de857829003601f168201915b50505050508152602001600482015481526020016005820154815260200160068201548152602001600782018054610e3c90611c0d565b80601f0160208091040260200160405190810160405280929190818152602001828054610e6890611c0d565b8015610eb55780601f10610e8a57610100808354040283529160200191610eb5565b820191906000526020600020905b815481529060010190602001808311610e9857829003601f168201915b5050505050815260200160088201805480602002602001604051908101604052809291908181526020018280548015610f1757602002820191906000526020600020905b81546001600160a01b03168152600190910190602001808311610ef9575b5050505050815260200160098201805480602002602001604051908101604052809291908181526020018280548015610f6f57602002820191906000526020600020905b815481526020019060010190808311610f5b575b50505050508152602001600a82015481525050838381518110610f9457610f94611c42565b6020026020010181905250508080610fab90611c6e565b915050610c1e565b50919050565b600254811061100a5760405162461bcd60e51b815260206004820152601a60248201527f43616d706169676e20494420646f6573206e6f742065786973740000000000006044820152606401610611565b60008181526020819052604081206002549091908190819061102e90600190611c89565b815260208082019290925260409081016000908120600a86015482529281905220815481546001600160a01b0319166001600160a01b039091161781556001808301805493945084939183019161108490611c0d565b61108f9291906115d9565b5060028201816002019080546110a490611c0d565b6110af9291906115d9565b5060038201816003019080546110c490611c0d565b6110cf9291906115d9565b50600482015481600401556005820154816005015560068201548160060155600782018160070190805461110290611c0d565b61110d9291906115d9565b50600882810180546111229284019190611654565b50600982810180546111379284019190611654565b50600a82015481600a01559050508160008060016002546111589190611c89565b81526020810191909152604001600020815481546001600160a01b0319166001600160a01b03909116178155600180830180549183019161119890611c0d565b6111a39291906115d9565b5060028201816002019080546111b890611c0d565b6111c39291906115d9565b5060038201816003019080546111d890611c0d565b6111e39291906115d9565b50600482015481600401556005820154816005015560068201548160060155600782018160070190805461121690611c0d565b6112219291906115d9565b50600882810180546112369284019190611654565b506009828101805461124b9284019190611654565b50600a91820154910155600254600090819061126990600190611c89565b81526020810191909152604001600090812080546001600160a01b0319168155906112976001830182611693565b6112a5600283016000611693565b6112b3600383016000611693565b6004820160009055600582016000905560068201600090556007820160006112db9190611693565b6112e96008830160006116d0565b6112f76009830160006116d0565b506000600a91909101819055600280549161131183611cb8565b90915550506003546000818152600160208190526040909120600a810192909255835482546001600160a01b0319166001600160a01b0390911617825583810180549183019161136090611c0d565b61136b9291906115d9565b50826002018160020190805461138090611c0d565b61138b9291906115d9565b5082600301816003019080546113a090611c0d565b6113ab9291906115d9565b5060048084015490820155600580840154908201556006808401549082015560078084018054918301916113de90611c0d565b6113e99291906115d9565b50600880840180546113fe9284019190611654565b50600980840180546114139284019190611654565b506003805490600061142483611c6e565b919050555050505050565b6000818152602081815260408220600881018054600181810183559185528385200180546001600160a01b031916331790556009820180549182018155845291909220349101819055600682015490919061148b908390611ca0565b6006909101555050565b600081815260208190526040902080546001600160a01b0384811691161461150b5760405162461bcd60e51b8152602060048201526024808201527f596f752061726520617574686f72697a656420746f2077697468647261772066604482015263756e647360e01b6064820152608401610611565b805460068201546040516001600160a01b039092169181156108fc0291906000818181858888f19350505050158015611548573d6000803e3d6000fd5b5060006006909101555050565b82805461156190611c0d565b90600052602060002090601f01602090048101928261158357600085556115c9565b82601f1061159c57805160ff19168380011785556115c9565b828001600101855582156115c9579182015b828111156115c95782518255916020019190600101906115ae565b506115d59291506116ea565b5090565b8280546115e590611c0d565b90600052602060002090601f01602090048101928261160757600085556115c9565b82601f1061161857805485556115c9565b828001600101855582156115c957600052602060002091601f016020900482015b828111156115c9578254825591600101919060010190611639565b8280548282559060005260206000209081019282156115c9576000526020600020918201828111156115c9578254825591600101919060010190611639565b50805461169f90611c0d565b6000825580601f106116af575050565b601f0160209004906000526020600020908101906116cd91906116ea565b50565b50805460008255906000526020600020908101906116cd91905b5b808211156115d557600081556001016116eb565b60006020828403121561171157600080fd5b5035919050565b604080825283519082018190526000906020906060840190828701845b8281101561175a5781516001600160a01b031684529284019290840190600101611735565b5050508381038285015284518082528583019183019060005b8181101561178f57835183529284019291840191600101611773565b5090979650505050505050565b6000815180845260005b818110156117c2576020818501810151868301820152016117a6565b818111156117d4576000602083870101525b50601f01601f19169290920160200192915050565b6001600160a01b038a1681526101206020820181905260009061180e8382018c61179c565b90508281036040840152611822818b61179c565b90508281036060840152611836818a61179c565b90508760808401528660a08401528560c084015282810360e084015261185c818661179c565b915050826101008301529a9950505050505050505050565b80356001600160a01b038116811461188b57600080fd5b919050565b6000806000606084860312156118a557600080fd5b833592506118b560208501611874565b9150604084013590509250925092565b634e487b7160e01b600052604160045260246000fd5b600082601f8301126118ec57600080fd5b813567ffffffffffffffff80821115611907576119076118c5565b604051601f8301601f19908116603f0116810190828211818310171561192f5761192f6118c5565b8160405283815286602085880101111561194857600080fd5b836020870160208301376000602085830101528094505050505092915050565b600080600080600080600060e0888a03121561198357600080fd5b61198c88611874565b9650602088013567ffffffffffffffff808211156119a957600080fd5b6119b58b838c016118db565b975060408a01359150808211156119cb57600080fd5b6119d78b838c016118db565b965060608a01359150808211156119ed57600080fd5b6119f98b838c016118db565b955060808a0135945060a08a0135935060c08a0135915080821115611a1d57600080fd5b50611a2a8a828b016118db565b91505092959891949750929550565b600081518084526020808501945080840160005b83811015611a725781516001600160a01b031687529582019590820190600101611a4d565b509495945050505050565b600081518084526020808501945080840160005b83811015611a7257815187529582019590820190600101611a91565b60006020808301818452808551808352604092508286019150828160051b87010184880160005b83811015611bd557888303603f19018552815180516001600160a01b0316845261016088820151818a870152611b0c8287018261179c565b9150508782015185820389870152611b24828261179c565b91505060608083015186830382880152611b3e838261179c565b92505050608080830151818701525060a080830151818701525060c080830151818701525060e08083015186830382880152611b7a838261179c565b925050506101008083015186830382880152611b968382611a39565b925050506101208083015186830382880152611bb28382611a7d565b610140948501519790940196909652505094870194925090860190600101611ad4565b509098975050505050505050565b60008060408385031215611bf657600080fd5b611bff83611874565b946020939093013593505050565b600181811c90821680611c2157607f821691505b60208210811415610fb357634e487b7160e01b600052602260045260246000fd5b634e487b7160e01b600052603260045260246000fd5b634e487b7160e01b600052601160045260246000fd5b6000600019821415611c8257611c82611c58565b5060010190565b600082821015611c9b57611c9b611c58565b500390565b60008219821115611cb357611cb3611c58565b500190565b600081611cc757611cc7611c58565b50600019019056fea26469706673582212205950282d27faa3b3c0a800ca2703083ce4221632e5361354dae66a380a8f06fb64736f6c63430008090033",
  "linkReferences": {},
  "deployedLinkReferences": {}
}